{
  "contractName": "BiddingContract",
  "abi": [
    {
      "constant": true,
      "inputs": [
        {
          "name": "",
          "type": "address"
        }
      ],
      "name": "productCount",
      "outputs": [
        {
          "name": "",
          "type": "uint256"
        }
      ],
      "payable": false,
      "stateMutability": "view",
      "type": "function",
      "signature": "0x15424f01"
    },
    {
      "constant": true,
      "inputs": [
        {
          "name": "",
          "type": "uint256"
        }
      ],
      "name": "productIdToOwner",
      "outputs": [
        {
          "name": "",
          "type": "address"
        }
      ],
      "payable": false,
      "stateMutability": "view",
      "type": "function",
      "signature": "0x28b5ad4b"
    },
    {
      "constant": true,
      "inputs": [
        {
          "name": "",
          "type": "uint256"
        }
      ],
      "name": "regSellers",
      "outputs": [
        {
          "name": "",
          "type": "address"
        }
      ],
      "payable": false,
      "stateMutability": "view",
      "type": "function",
      "signature": "0x3b1d25d1"
    },
    {
      "constant": true,
      "inputs": [],
      "name": "tokensSold",
      "outputs": [
        {
          "name": "",
          "type": "uint256"
        }
      ],
      "payable": false,
      "stateMutability": "view",
      "type": "function",
      "signature": "0x518ab2a8"
    },
    {
      "constant": true,
      "inputs": [],
      "name": "tokenContract",
      "outputs": [
        {
          "name": "",
          "type": "address"
        }
      ],
      "payable": false,
      "stateMutability": "view",
      "type": "function",
      "signature": "0x55a373d6"
    },
    {
      "constant": true,
      "inputs": [],
      "name": "tokenPrice",
      "outputs": [
        {
          "name": "",
          "type": "uint256"
        }
      ],
      "payable": false,
      "stateMutability": "view",
      "type": "function",
      "signature": "0x7ff9b596"
    },
    {
      "constant": true,
      "inputs": [
        {
          "name": "",
          "type": "address"
        },
        {
          "name": "",
          "type": "uint256"
        }
      ],
      "name": "latestBidStore",
      "outputs": [
        {
          "name": "",
          "type": "uint256"
        }
      ],
      "payable": false,
      "stateMutability": "view",
      "type": "function",
      "signature": "0x8a38ffa2"
    },
    {
      "constant": true,
      "inputs": [
        {
          "name": "",
          "type": "uint256"
        }
      ],
      "name": "bidders",
      "outputs": [
        {
          "name": "",
          "type": "address"
        }
      ],
      "payable": false,
      "stateMutability": "view",
      "type": "function",
      "signature": "0xcff29dfd"
    },
    {
      "inputs": [
        {
          "name": "_tokenContract",
          "type": "address"
        },
        {
          "name": "_tokenPrice",
          "type": "uint256"
        }
      ],
      "payable": false,
      "stateMutability": "nonpayable",
      "type": "constructor",
      "signature": "constructor"
    },
    {
      "anonymous": false,
      "inputs": [
        {
          "indexed": true,
          "name": "_customer",
          "type": "address"
        },
        {
          "indexed": false,
          "name": "_numberOfTokens",
          "type": "uint256"
        }
      ],
      "name": "TokenSold",
      "type": "event",
      "signature": "0xfe2ff4cf36ff7d2c2b06eb960897ee0d76d9c3e58da12feb7b93e86b226dd344"
    },
    {
      "anonymous": false,
      "inputs": [
        {
          "indexed": true,
          "name": "_productId",
          "type": "uint256"
        },
        {
          "indexed": true,
          "name": "_customer",
          "type": "address"
        },
        {
          "indexed": false,
          "name": "_numberOfTokens",
          "type": "uint256"
        }
      ],
      "name": "ProductSold",
      "type": "event",
      "signature": "0x31bb31d00bedecd9cb0a6f27507b6f5b268f069f24168aa35ae70c21c2e8d5ca"
    },
    {
      "anonymous": false,
      "inputs": [
        {
          "indexed": true,
          "name": "_productId",
          "type": "uint256"
        },
        {
          "indexed": true,
          "name": "_bidder",
          "type": "address"
        },
        {
          "indexed": false,
          "name": "_numberOfTokens",
          "type": "uint256"
        }
      ],
      "name": "Bidding",
      "type": "event",
      "signature": "0x25503b4fa67c48e494bd01a58de80d35d064c1797891f4af928672a8f5ee0634"
    },
    {
      "anonymous": false,
      "inputs": [
        {
          "indexed": true,
          "name": "_sellerId",
          "type": "address"
        },
        {
          "indexed": true,
          "name": "_productId",
          "type": "uint256"
        },
        {
          "indexed": false,
          "name": "productName",
          "type": "string"
        },
        {
          "indexed": false,
          "name": "bidStartTime",
          "type": "uint256"
        },
        {
          "indexed": true,
          "name": "isAvailable",
          "type": "bool"
        },
        {
          "indexed": false,
          "name": "bidSession",
          "type": "uint256"
        }
      ],
      "name": "NewProductAdded",
      "type": "event",
      "signature": "0x4de4150ffe329f5e6570a7a336587b4d706a4cf73edc12ab959139413af5a8b5"
    },
    {
      "constant": false,
      "inputs": [],
      "name": "StopContract",
      "outputs": [],
      "payable": false,
      "stateMutability": "nonpayable",
      "type": "function",
      "signature": "0x9a24ffb3"
    },
    {
      "constant": false,
      "inputs": [
        {
          "name": "_numberOfTokens",
          "type": "uint256"
        }
      ],
      "name": "buyTokens",
      "outputs": [],
      "payable": true,
      "stateMutability": "payable",
      "type": "function",
      "signature": "0x3610724e"
    },
    {
      "constant": false,
      "inputs": [],
      "name": "endSupply",
      "outputs": [],
      "payable": false,
      "stateMutability": "nonpayable",
      "type": "function",
      "signature": "0x50847a33"
    },
    {
      "constant": false,
      "inputs": [
        {
          "name": "_sellerAddress",
          "type": "address"
        },
        {
          "name": "_sellerName",
          "type": "string"
        },
        {
          "name": "_sellerId",
          "type": "uint256"
        }
      ],
      "name": "registerSeller",
      "outputs": [
        {
          "name": "",
          "type": "bool"
        }
      ],
      "payable": false,
      "stateMutability": "nonpayable",
      "type": "function",
      "signature": "0xa93d4cae"
    },
    {
      "constant": true,
      "inputs": [],
      "name": "getSellers",
      "outputs": [
        {
          "name": "",
          "type": "address[]"
        }
      ],
      "payable": false,
      "stateMutability": "view",
      "type": "function",
      "signature": "0x7ee454cb"
    },
    {
      "constant": true,
      "inputs": [
        {
          "name": "_address",
          "type": "address"
        }
      ],
      "name": "getSeller",
      "outputs": [
        {
          "name": "",
          "type": "uint256"
        },
        {
          "name": "",
          "type": "string"
        }
      ],
      "payable": false,
      "stateMutability": "view",
      "type": "function",
      "signature": "0xa323d29e"
    },
    {
      "constant": false,
      "inputs": [
        {
          "name": "_productId",
          "type": "uint256"
        },
        {
          "name": "_productName",
          "type": "string"
        },
        {
          "name": "_bidStartPrice",
          "type": "uint256"
        },
        {
          "name": "_sessionValue",
          "type": "uint32"
        }
      ],
      "name": "addProductForBid",
      "outputs": [
        {
          "name": "",
          "type": "bool"
        }
      ],
      "payable": false,
      "stateMutability": "nonpayable",
      "type": "function",
      "signature": "0x2a4d8508"
    },
    {
      "constant": false,
      "inputs": [
        {
          "name": "_productId",
          "type": "uint256"
        },
        {
          "name": "_bidValue",
          "type": "uint256"
        }
      ],
      "name": "Bid",
      "outputs": [
        {
          "name": "",
          "type": "bool"
        }
      ],
      "payable": false,
      "stateMutability": "nonpayable",
      "type": "function",
      "signature": "0x47a0375b"
    },
    {
      "constant": false,
      "inputs": [
        {
          "name": "_productId",
          "type": "uint256"
        }
      ],
      "name": "finalizeBid",
      "outputs": [
        {
          "name": "",
          "type": "bool"
        }
      ],
      "payable": false,
      "stateMutability": "nonpayable",
      "type": "function",
      "signature": "0xcb6cbe8f"
    }
  ],
  "bytecode": "0x608060405260008060006101000a81548160ff02191690831515021790555034801561002a57600080fd5b50604051604080612cbb8339810180604052604081101561004a57600080fd5b81019080805190602001909291908051906020019092919050505033600060016101000a81548173ffffffffffffffffffffffffffffffffffffffff021916908373ffffffffffffffffffffffffffffffffffffffff16021790555081600160006101000a81548173ffffffffffffffffffffffffffffffffffffffff021916908373ffffffffffffffffffffffffffffffffffffffff160217905550806002819055505050612bbc806100ff6000396000f3fe6080604052600436106100f1576000357c0100000000000000000000000000000000000000000000000000000000900463ffffffff16806315424f01146100f657806328b5ad4b1461015b5780632a4d8508146101d65780633610724e146102da5780633b1d25d11461030857806347a0375b1461038357806350847a33146103e0578063518ab2a8146103f757806355a373d6146104225780637ee454cb146104795780637ff9b596146104e55780638a38ffa2146105105780639a24ffb31461057f578063a323d29e14610596578063a93d4cae14610667578063cb6cbe8f14610771578063cff29dfd146107c4575b600080fd5b34801561010257600080fd5b506101456004803603602081101561011957600080fd5b81019080803573ffffffffffffffffffffffffffffffffffffffff16906020019092919050505061083f565b6040518082815260200191505060405180910390f35b34801561016757600080fd5b506101946004803603602081101561017e57600080fd5b8101908080359060200190929190505050610857565b604051808273ffffffffffffffffffffffffffffffffffffffff1673ffffffffffffffffffffffffffffffffffffffff16815260200191505060405180910390f35b3480156101e257600080fd5b506102c0600480360360808110156101f957600080fd5b81019080803590602001909291908035906020019064010000000081111561022057600080fd5b82018360208201111561023257600080fd5b8035906020019184600183028401116401000000008311171561025457600080fd5b91908080601f016020809104026020016040519081016040528093929190818152602001838380828437600081840152601f19601f82011690508083019250505050505050919291929080359060200190929190803563ffffffff16906020019092919050505061088a565b604051808215151515815260200191505060405180910390f35b610306600480360360208110156102f057600080fd5b8101908080359060200190929190505050610dec565b005b34801561031457600080fd5b506103416004803603602081101561032b57600080fd5b81019080803590602001909291905050506111da565b604051808273ffffffffffffffffffffffffffffffffffffffff1673ffffffffffffffffffffffffffffffffffffffff16815260200191505060405180910390f35b34801561038f57600080fd5b506103c6600480360360408110156103a657600080fd5b810190808035906020019092919080359060200190929190505050611218565b604051808215151515815260200191505060405180910390f35b3480156103ec57600080fd5b506103f5611997565b005b34801561040357600080fd5b5061040c611da4565b6040518082815260200191505060405180910390f35b34801561042e57600080fd5b50610437611daa565b604051808273ffffffffffffffffffffffffffffffffffffffff1673ffffffffffffffffffffffffffffffffffffffff16815260200191505060405180910390f35b34801561048557600080fd5b5061048e611dd0565b6040518080602001828103825283818151815260200191508051906020019060200280838360005b838110156104d15780820151818401526020810190506104b6565b505050509050019250505060405180910390f35b3480156104f157600080fd5b506104fa611e5e565b6040518082815260200191505060405180910390f35b34801561051c57600080fd5b506105696004803603604081101561053357600080fd5b81019080803573ffffffffffffffffffffffffffffffffffffffff16906020019092919080359060200190929190505050611e64565b6040518082815260200191505060405180910390f35b34801561058b57600080fd5b50610594611e89565b005b3480156105a257600080fd5b506105e5600480360360208110156105b957600080fd5b81019080803573ffffffffffffffffffffffffffffffffffffffff169060200190929190505050611f6a565b6040518083815260200180602001828103825283818151815260200191508051906020019080838360005b8381101561062b578082015181840152602081019050610610565b50505050905090810190601f1680156106585780820380516001836020036101000a031916815260200191505b50935050505060405180910390f35b34801561067357600080fd5b506107576004803603606081101561068a57600080fd5b81019080803573ffffffffffffffffffffffffffffffffffffffff169060200190929190803590602001906401000000008111156106c757600080fd5b8201836020820111156106d957600080fd5b803590602001918460018302840111640100000000831117156106fb57600080fd5b91908080601f016020809104026020016040519081016040528093929190818152602001838380828437600081840152601f19601f82011690508083019250505050505050919291929080359060200190929190505050612098565b604051808215151515815260200191505060405180910390f35b34801561077d57600080fd5b506107aa6004803603602081101561079457600080fd5b8101908080359060200190929190505050612391565b604051808215151515815260200191505060405180910390f35b3480156107d057600080fd5b506107fd600480360360208110156107e757600080fd5b810190808035906020019092919050505061293c565b604051808273ffffffffffffffffffffffffffffffffffffffff1673ffffffffffffffffffffffffffffffffffffffff16815260200191505060405180910390f35b60066020528060005260406000206000915090505481565b60056020528060005260406000206000915054906101000a900473ffffffffffffffffffffffffffffffffffffffff1681565b600033600460008273ffffffffffffffffffffffffffffffffffffffff1673ffffffffffffffffffffffffffffffffffffffff16815260200190815260200160002060020160009054906101000a900460ff161515610951576040517f08c379a00000000000000000000000000000000000000000000000000000000081526004018080602001828103825260158152602001807f73656c6c6572206e6f742072656769737465726564000000000000000000000081525060200191505060405180910390fd5b8460076000888152602001908152602001600020600601908051906020019061097b9291906129d9565b5083600760008881526020019081526020016000206001018190555060016007600088815260200190815260200160002060070160006101000a81548160ff021916908315150217905550426007600088815260200190815260200160002060020160006101000a81548163ffffffff021916908363ffffffff16021790555060016007600088815260200190815260200160002060070160006101000a81548160ff021916908315150217905550826007600088815260200190815260200160002060070160016101000a81548163ffffffff021916908363ffffffff160217905550610a67612a59565b868160000181815250508581608001819052508481602001818152505042816040019063ffffffff16908163ffffffff168152505060018160a0019015159081151581525050838160c0019063ffffffff16908163ffffffff16815250506001600a8290806001815401808255809150509060018203906000526020600020906009020160009091929091909150600082015181600001556020820151816001015560408201518160020160006101000a81548163ffffffff021916908363ffffffff16021790555060608201518160030160008201518160000160006101000a81548173ffffffffffffffffffffffffffffffffffffffff021916908373ffffffffffffffffffffffffffffffffffffffff160217905550602082015181600101556040820151816002015550506080820151816006019080519060200190610bb2929190612ab3565b5060a08201518160070160006101000a81548160ff02191690831515021790555060c08201518160070160016101000a81548163ffffffff021916908363ffffffff16021790555060e0820151816008019080519060200190610c16929190612ab3565b5050505050336005600089815260200190815260200160002060006101000a81548173ffffffffffffffffffffffffffffffffffffffff021916908373ffffffffffffffffffffffffffffffffffffffff1602179055506001600660003373ffffffffffffffffffffffffffffffffffffffff1673ffffffffffffffffffffffffffffffffffffffff1681526020019081526020016000206000828254019250508190555084600860003373ffffffffffffffffffffffffffffffffffffffff1673ffffffffffffffffffffffffffffffffffffffff16815260200190815260200160002060008981526020019081526020016000208190555060011515873373ffffffffffffffffffffffffffffffffffffffff167f4de4150ffe329f5e6570a7a336587b4d706a4cf73edc12ab959139413af5a8b589898960405180806020018481526020018363ffffffff168152602001828103825285818151815260200191508051906020019080838360005b83811015610da2578082015181840152602081019050610d87565b50505050905090810190601f168015610dcf5780820380516001836020036101000a031916815260200191505b5094505050505060405180910390a4600192505050949350505050565b6000809054906101000a900460ff1615156111d757610e166002548261297a90919063ffffffff16565b34141515610e8c576040517f08c379a00000000000000000000000000000000000000000000000000000000081526004018080602001828103825260208152602001807f636f727265637420616d6f756e74206f66206574686572206e6f742073656e7481525060200191505060405180910390fd5b80600160009054906101000a900473ffffffffffffffffffffffffffffffffffffffff1673ffffffffffffffffffffffffffffffffffffffff166370a08231306040518263ffffffff167c0100000000000000000000000000000000000000000000000000000000028152600401808273ffffffffffffffffffffffffffffffffffffffff1673ffffffffffffffffffffffffffffffffffffffff16815260200191505060206040518083038186803b158015610f4857600080fd5b505afa158015610f5c573d6000803e3d6000fd5b505050506040513d6020811015610f7257600080fd5b810190808051906020019092919050505010151515610ff9576040517f08c379a00000000000000000000000000000000000000000000000000000000081526004018080602001828103825260148152602001807f746f6b656e73206e6f7420617661696c61626c6500000000000000000000000081525060200191505060405180910390fd5b600160009054906101000a900473ffffffffffffffffffffffffffffffffffffffff1673ffffffffffffffffffffffffffffffffffffffff1663a9059cbb33836040518363ffffffff167c0100000000000000000000000000000000000000000000000000000000028152600401808373ffffffffffffffffffffffffffffffffffffffff1673ffffffffffffffffffffffffffffffffffffffff16815260200182815260200192505050602060405180830381600087803b1580156110be57600080fd5b505af11580156110d2573d6000803e3d6000fd5b505050506040513d60208110156110e857600080fd5b8101908080519060200190929190505050151561116d576040517f08c379a000000000000000000000000000000000000000000000000000000000815260040180806020018281038252600f8152602001807f746f6b656e73206e6f742073656e74000000000000000000000000000000000081525060200191505060405180910390fd5b611182816003546129b890919063ffffffff16565b6003819055503373ffffffffffffffffffffffffffffffffffffffff167ffe2ff4cf36ff7d2c2b06eb960897ee0d76d9c3e58da12feb7b93e86b226dd344826040518082815260200191505060405180910390a25b50565b6009818154811015156111e957fe5b906000526020600020016000915054906101000a900473ffffffffffffffffffffffffffffffffffffffff1681565b6000826007600082815260200190815260200160002060020160009054906101000a900463ffffffff166007600083815260200190815260200160002060070160019054906101000a900463ffffffff160163ffffffff16421015156112e6576040517f08c379a000000000000000000000000000000000000000000000000000000000815260040180806020018281038252601f8152602001807f54696d656f7574206f63637572656420666f72207468652070726f647563740081525060200191505060405180910390fd5b82600160009054906101000a900473ffffffffffffffffffffffffffffffffffffffff1673ffffffffffffffffffffffffffffffffffffffff166370a08231336040518263ffffffff167c0100000000000000000000000000000000000000000000000000000000028152600401808273ffffffffffffffffffffffffffffffffffffffff1673ffffffffffffffffffffffffffffffffffffffff16815260200191505060206040518083038186803b1580156113a257600080fd5b505afa1580156113b6573d6000803e3d6000fd5b505050506040513d60208110156113cc57600080fd5b810190808051906020019092919050505010151515611453576040517f08c379a00000000000000000000000000000000000000000000000000000000081526004018080602001828103825260128152602001807f6e6f7420656e6f7567682062616c616e6365000000000000000000000000000081525060200191505060405180910390fd5b82600860003373ffffffffffffffffffffffffffffffffffffffff1673ffffffffffffffffffffffffffffffffffffffff16815260200190815260200160002060008681526020019081526020016000205411151561151a576040517f08c379a00000000000000000000000000000000000000000000000000000000081526004018080602001828103825260188152602001807f6d757374206269642061206c617267657220616d6f756e74000000000000000081525060200191505060405180910390fd5b82600160009054906101000a900473ffffffffffffffffffffffffffffffffffffffff1673ffffffffffffffffffffffffffffffffffffffff1663dd62ed3e33306040518363ffffffff167c0100000000000000000000000000000000000000000000000000000000028152600401808373ffffffffffffffffffffffffffffffffffffffff1673ffffffffffffffffffffffffffffffffffffffff1681526020018273ffffffffffffffffffffffffffffffffffffffff1673ffffffffffffffffffffffffffffffffffffffff1681526020019250505060206040518083038186803b15801561160a57600080fd5b505afa15801561161e573d6000803e3d6000fd5b505050506040513d602081101561163457600080fd5b81019080805190602001909291905050501415156116ba576040517f08c379a00000000000000000000000000000000000000000000000000000000081526004018080602001828103825260108152602001807f6e6f7420617070726f766564207965740000000000000000000000000000000081525060200191505060405180910390fd5b600160009054906101000a900473ffffffffffffffffffffffffffffffffffffffff1673ffffffffffffffffffffffffffffffffffffffff166323b872dd3330866040518463ffffffff167c0100000000000000000000000000000000000000000000000000000000028152600401808473ffffffffffffffffffffffffffffffffffffffff1673ffffffffffffffffffffffffffffffffffffffff1681526020018373ffffffffffffffffffffffffffffffffffffffff1673ffffffffffffffffffffffffffffffffffffffff1681526020018281526020019350505050602060405180830381600087803b1580156117b357600080fd5b505af11580156117c7573d6000803e3d6000fd5b505050506040513d60208110156117dd57600080fd5b81019080805190602001909291905050505082600860003373ffffffffffffffffffffffffffffffffffffffff1673ffffffffffffffffffffffffffffffffffffffff1681526020019081526020016000206000868152602001908152602001600020819055506001600b3390806001815401808255809150509060018203906000526020600020016000909192909190916101000a81548173ffffffffffffffffffffffffffffffffffffffff021916908373ffffffffffffffffffffffffffffffffffffffff1602179055505050336007600086815260200190815260200160002060030160000160006101000a81548173ffffffffffffffffffffffffffffffffffffffff021916908373ffffffffffffffffffffffffffffffffffffffff1602179055508360076000868152602001908152602001600020600301600101819055508260076000868152602001908152602001600020600301600201819055503373ffffffffffffffffffffffffffffffffffffffff16847f25503b4fa67c48e494bd01a58de80d35d064c1797891f4af928672a8f5ee0634856040518082815260200191505060405180910390a35092915050565b6000809054906101000a900460ff1615611da257600060019054906101000a900473ffffffffffffffffffffffffffffffffffffffff1673ffffffffffffffffffffffffffffffffffffffff163373ffffffffffffffffffffffffffffffffffffffff16141515611a96576040517f08c379a00000000000000000000000000000000000000000000000000000000081526004018080602001828103825260218152602001807f6f6e6c792061646d696e2063616e20656e642074686520746f6b656e2073616c81526020017f650000000000000000000000000000000000000000000000000000000000000081525060400191505060405180910390fd5b600160009054906101000a900473ffffffffffffffffffffffffffffffffffffffff1673ffffffffffffffffffffffffffffffffffffffff1663a9059cbb600060019054906101000a900473ffffffffffffffffffffffffffffffffffffffff16600160009054906101000a900473ffffffffffffffffffffffffffffffffffffffff1673ffffffffffffffffffffffffffffffffffffffff166370a08231306040518263ffffffff167c0100000000000000000000000000000000000000000000000000000000028152600401808273ffffffffffffffffffffffffffffffffffffffff1673ffffffffffffffffffffffffffffffffffffffff16815260200191505060206040518083038186803b158015611bb257600080fd5b505afa158015611bc6573d6000803e3d6000fd5b505050506040513d6020811015611bdc57600080fd5b81019080805190602001909291905050506040518363ffffffff167c0100000000000000000000000000000000000000000000000000000000028152600401808373ffffffffffffffffffffffffffffffffffffffff1673ffffffffffffffffffffffffffffffffffffffff16815260200182815260200192505050602060405180830381600087803b158015611c7257600080fd5b505af1158015611c86573d6000803e3d6000fd5b505050506040513d6020811015611c9c57600080fd5b81019080805190602001909291905050501515611d21576040517f08c379a00000000000000000000000000000000000000000000000000000000081526004018080602001828103825260188152602001807f62616c616e6365206e6f74207472616e7366657272696e67000000000000000081525060200191505060405180910390fd5b600060019054906101000a900473ffffffffffffffffffffffffffffffffffffffff1673ffffffffffffffffffffffffffffffffffffffff166108fc3073ffffffffffffffffffffffffffffffffffffffff16319081150290604051600060405180830381858888f19350505050158015611da0573d6000803e3d6000fd5b505b565b60035481565b600160009054906101000a900473ffffffffffffffffffffffffffffffffffffffff1681565b60606009805480602002602001604051908101604052809291908181526020018280548015611e5457602002820191906000526020600020905b8160009054906101000a900473ffffffffffffffffffffffffffffffffffffffff1673ffffffffffffffffffffffffffffffffffffffff1681526020019060010190808311611e0a575b5050505050905090565b60025481565b6008602052816000526040600020602052806000526040600020600091509150505481565b600060019054906101000a900473ffffffffffffffffffffffffffffffffffffffff1673ffffffffffffffffffffffffffffffffffffffff163373ffffffffffffffffffffffffffffffffffffffff16141515611f4e576040517f08c379a000000000000000000000000000000000000000000000000000000000815260040180806020018281038252600c8152602001807f6e6f7420616e2061646d696e000000000000000000000000000000000000000081525060200191505060405180910390fd5b60016000806101000a81548160ff021916908315150217905550565b60006060600460008473ffffffffffffffffffffffffffffffffffffffff1673ffffffffffffffffffffffffffffffffffffffff16815260200190815260200160002060000154600460008573ffffffffffffffffffffffffffffffffffffffff1673ffffffffffffffffffffffffffffffffffffffff168152602001908152602001600020600101808054600181600116156101000203166002900480601f0160208091040260200160405190810160405280929190818152602001828054600181600116156101000203166002900480156120885780601f1061205d57610100808354040283529160200191612088565b820191906000526020600020905b81548152906001019060200180831161206b57829003601f168201915b5050505050905091509150915091565b60008060019054906101000a900473ffffffffffffffffffffffffffffffffffffffff1673ffffffffffffffffffffffffffffffffffffffff163373ffffffffffffffffffffffffffffffffffffffff1614151561215e576040517f08c379a000000000000000000000000000000000000000000000000000000000815260040180806020018281038252600c8152602001807f6e6f7420616e2061646d696e000000000000000000000000000000000000000081525060200191505060405180910390fd5b83600460008273ffffffffffffffffffffffffffffffffffffffff1673ffffffffffffffffffffffffffffffffffffffff16815260200190815260200160002060020160009054906101000a900460ff161515612223576040517f08c379a00000000000000000000000000000000000000000000000000000000081526004018080602001828103825260158152602001807f73656c6c6572206e6f742072656769737465726564000000000000000000000081525060200191505060405180910390fd5b83600460008773ffffffffffffffffffffffffffffffffffffffff1673ffffffffffffffffffffffffffffffffffffffff16815260200190815260200160002060010190805190602001906122799291906129d9565b5082600460008773ffffffffffffffffffffffffffffffffffffffff1673ffffffffffffffffffffffffffffffffffffffff168152602001908152602001600020600001819055506001600460008773ffffffffffffffffffffffffffffffffffffffff1673ffffffffffffffffffffffffffffffffffffffff16815260200190815260200160002060020160006101000a81548160ff021916908315150217905550600160098690806001815401808255809150509060018203906000526020600020016000909192909190916101000a81548173ffffffffffffffffffffffffffffffffffffffff021916908373ffffffffffffffffffffffffffffffffffffffff160217905550505060019150509392505050565b60003373ffffffffffffffffffffffffffffffffffffffff166005600084815260200190815260200160002060009054906101000a900473ffffffffffffffffffffffffffffffffffffffff1673ffffffffffffffffffffffffffffffffffffffff16141515612469576040517f08c379a00000000000000000000000000000000000000000000000000000000081526004018080602001828103825260208152602001807f73656c6c65722063616e206f6e6c792066696e616c697a65207468652062696481525060200191505060405180910390fd5b6007600083815260200190815260200160002060020160009054906101000a900463ffffffff166007600084815260200190815260200160002060070160019054906101000a900463ffffffff160163ffffffff1642111515612534576040517f08c379a000000000000000000000000000000000000000000000000000000000815260040180806020018281038252600f8152602001807f63616e6e6f742066696e616c697a65000000000000000000000000000000000081525060200191505060405180910390fd5b60006007600084815260200190815260200160002060070160006101000a81548160ff02191690831515021790555060008090505b600b805490508110156127e3576000600b8281548110151561258757fe5b9060005260206000200160009054906101000a900473ffffffffffffffffffffffffffffffffffffffff1690506000600860008373ffffffffffffffffffffffffffffffffffffffff1673ffffffffffffffffffffffffffffffffffffffff1681526020019081526020016000206000868152602001908152602001600020541415801561267e57506007600085815260200190815260200160002060030160020154600860008373ffffffffffffffffffffffffffffffffffffffff1673ffffffffffffffffffffffffffffffffffffffff16815260200190815260200160002060008681526020019081526020016000205414155b156127d557600160009054906101000a900473ffffffffffffffffffffffffffffffffffffffff1673ffffffffffffffffffffffffffffffffffffffff1663a9059cbb82600860008573ffffffffffffffffffffffffffffffffffffffff1673ffffffffffffffffffffffffffffffffffffffff1681526020019081526020016000206000888152602001908152602001600020546040518363ffffffff167c0100000000000000000000000000000000000000000000000000000000028152600401808373ffffffffffffffffffffffffffffffffffffffff1673ffffffffffffffffffffffffffffffffffffffff16815260200182815260200192505050602060405180830381600087803b15801561279857600080fd5b505af11580156127ac573d6000803e3d6000fd5b505050506040513d60208110156127c257600080fd5b8101908080519060200190929190505050505b508080600101915050612569565b50600160009054906101000a900473ffffffffffffffffffffffffffffffffffffffff1673ffffffffffffffffffffffffffffffffffffffff1663a9059cbb6007600085815260200190815260200160002060030160000160009054906101000a900473ffffffffffffffffffffffffffffffffffffffff1660076000868152602001908152602001600020600301600201546040518363ffffffff167c0100000000000000000000000000000000000000000000000000000000028152600401808373ffffffffffffffffffffffffffffffffffffffff1673ffffffffffffffffffffffffffffffffffffffff16815260200182815260200192505050602060405180830381600087803b1580156128fb57600080fd5b505af115801561290f573d6000803e3d6000fd5b505050506040513d602081101561292557600080fd5b810190808051906020019092919050505050919050565b600b8181548110151561294b57fe5b906000526020600020016000915054906101000a900473ffffffffffffffffffffffffffffffffffffffff1681565b60008083141561298d57600090506129b2565b600082840290508284828115156129a057fe5b041415156129ad57600080fd5b809150505b92915050565b60008082840190508381101515156129cf57600080fd5b8091505092915050565b828054600181600116156101000203166002900490600052602060002090601f016020900481019282601f10612a1a57805160ff1916838001178555612a48565b82800160010185558215612a48579182015b82811115612a47578251825591602001919060010190612a2c565b5b509050612a559190612b33565b5090565b610140604051908101604052806000815260200160008152602001600063ffffffff168152602001612a89612b58565b815260200160608152602001600015158152602001600063ffffffff168152602001606081525090565b828054600181600116156101000203166002900490600052602060002090601f016020900481019282601f10612af457805160ff1916838001178555612b22565b82800160010185558215612b22579182015b82811115612b21578251825591602001919060010190612b06565b5b509050612b2f9190612b33565b5090565b612b5591905b80821115612b51576000816000905550600101612b39565b5090565b90565b606060405190810160405280600073ffffffffffffffffffffffffffffffffffffffff1681526020016000815260200160008152509056fea165627a7a723058205ee0dcedebab90a69fea45c7ee8b20ef81348032066a0842f3d70c16a6c24a7f0029",
  "source": "/// BiddingContract: Takes care of all the bidding business logic and admin related permissions\n \npragma solidity >=0.4.21 <0.6.0;\n\n// import the ASS token\nimport \"./AucSters.sol\";\n\n// SafeMath for Ops Utils\nimport \"../libraries/SafeMath.sol\";\n\n// It handles all the trade-offs needed: Token Buying, \ncontract BiddingContract {\n\n    // state variables\n    bool private stopped = false;\n\n    using SafeMath for uint; \n\n    address payable admin;\n    AucSters public tokenContract;\n    uint256 public tokenPrice;\n    uint256 public tokensSold;\n\n    //structs\n    struct Seller {\n        uint256 sellerId;\n        string sellerName;\n        bool isValidSeller;\n    }\n    struct Bidder {\n        address bidders_address;\n        uint productId;\n        uint bidValue;\n    }\n    struct Product {\n        uint productId;\n        uint bidStartPrice;\n        uint32 bidStartTime;\n        Bidder latestBid;\n        string productName;\n        bool isAvailable;\n        uint32 bidSession;\n        string productImage;\n    }\n\n\n\n    //seller-mappings\n    mapping(address => Seller) registeredSeller;\n\n    // ** product-mappings : a registered seller has multiple products\n\n    //lookup for the owner of product with productId\n    mapping(uint => address) public productIdToOwner;\n    mapping(address => uint) public productCount;\n\n    //get product details with specific productId\n    mapping(uint => Product) product;\n\n    //latest bid tracker\n    mapping(address => mapping(uint => uint)) public latestBidStore;\n\n\n    //ARRAYS\n    address[] public regSellers;\n    Product[] productsForSale;\n    address[] public bidders;\n\n\n    // modifiers\n    modifier onlyOwner() {\n        require(msg.sender == admin, \"not an admin\");\n        _;\n    }\n\n    modifier isRegisteredSeller(address _seller) {\n        require(registeredSeller[_seller].isValidSeller,\"seller not registered\");\n        _;\n    }\n\n    modifier inSession(uint256 _productId){\n        require(now < product[_productId].bidSession + product[_productId].bidStartTime, \"Timeout occured for the product\");\n        _;\n    }\n\n    /** modifiers used as a  circuit breaker in the contract\n        we can end the token sale when needed => no bidding can occur\n    */\n    modifier stopInEmergency { if (!stopped) _; }\n    modifier onlyInEmergency { if (stopped) _; }\n\n    //events\n    event TokenSold(address indexed _customer,\n                    uint _numberOfTokens\n    );\n\n    event ProductSold(uint indexed _productId,\n                address indexed _customer,\n                uint _numberOfTokens\n    );\n\n    event Bidding(uint indexed _productId,\n                address indexed _bidder,\n                uint _numberOfTokens\n    );\n\n    event NewProductAdded( address indexed _sellerId,\n                           uint indexed _productId,\n                           string productName,\n                           uint bidStartTime,\n                           bool indexed isAvailable,\n                           uint bidSession\n    );\n\n    constructor(AucSters _tokenContract, uint _tokenPrice) public {\n        //Assign an admin\n        admin = msg.sender;\n\n        // token Contract \n        tokenContract = _tokenContract;\n        \n        //Token price\n        tokenPrice = _tokenPrice;\n    }\n    \n    // It stops the token buying and ends the sale \n    function StopContract() onlyOwner public {\n        stopped = true;\n    }\n\n    // Buying AucSters Token for bidding\n    function buyTokens(uint256 _numberOfTokens) public stopInEmergency payable {\n        require(msg.value == _numberOfTokens.mul(tokenPrice), \"correct amount of ether not sent\");\n        require(tokenContract.balanceOf(address(this)) >= _numberOfTokens, \"tokens not available\");\n        require(tokenContract.transfer(msg.sender, _numberOfTokens), \"tokens not sent\");\n\n        tokensSold = tokensSold.add(_numberOfTokens);\n\n        emit TokenSold(msg.sender, _numberOfTokens);\n    }\n    // Ending the supply\n    function endSupply() onlyInEmergency public {\n        require(msg.sender == admin,\"only admin can end the token sale\");\n        require(tokenContract.transfer(admin, tokenContract.balanceOf(address(this))),\"balance not transferring\");\n\n        //selfdestruct(msg.sender);\n        admin.transfer(address(this).balance);\n    }\n\n    // registration of seller from the admin\n    function registerSeller(address _sellerAddress, string memory _sellerName, uint256 _sellerId) public onlyOwner isRegisteredSeller(_sellerAddress) returns(bool){\n        registeredSeller[_sellerAddress].sellerName = _sellerName;\n        registeredSeller[_sellerAddress].sellerId = _sellerId;\n        registeredSeller[_sellerAddress].isValidSeller = true;\n\n        regSellers.push(_sellerAddress) - 1;\n\n        return true;\n    }\n    // get All sellers\n    function getSellers() public view  returns(address[] memory) {\n        return regSellers;\n    }\n\n    // get description of a registered seller\n    function getSeller(address _address) public view returns(uint, string memory){\n        return( registeredSeller[_address].sellerId, registeredSeller[_address].sellerName);\n    }\n\n    // registered sellers can add products for bidding\n    function addProductForBid(uint _productId, string memory _productName, uint256 _bidStartPrice, uint32 _sessionValue) public isRegisteredSeller(msg.sender) returns(bool){\n\n        // update the product mapping\n        product[_productId].productName = _productName;\n        product[_productId].bidStartPrice = _bidStartPrice;\n        product[_productId].isAvailable = true;\n        product[_productId].bidStartTime = uint32(now);\n        product[_productId].isAvailable = true;\n        product[_productId].bidSession = _sessionValue;\n\n\n        // Update the all product array\n        Product memory newProduct;\n        newProduct.productId = _productId;\n        newProduct.productName = _productName;\n        newProduct.bidStartPrice = _bidStartPrice;\n        newProduct.bidStartTime = uint32(now);\n        newProduct.isAvailable = true;\n        newProduct.bidSession = _sessionValue;\n\n\n        productsForSale.push(newProduct) - 1;\n\n        productIdToOwner[_productId] = msg.sender;\n        productCount[msg.sender] += 1;\n\n        //Initial Bid price is set to the mapping\n        latestBidStore[msg.sender][_productId] = _bidStartPrice;\n\n        // emit an product added event\n        emit NewProductAdded(msg.sender, _productId, _productName, _bidStartPrice, true, _sessionValue);\n\n        return true;\n    }\n\n    // UPGRADE : function removeProduct();\n    // UPGRADE : update productForSale array\n\n\n    // bidding on a certain product\n\n    function Bid(uint _productId, uint _bidValue) inSession(_productId) public returns(bool) { // modifier to check the session is still there\n        // check if msg.sender has enough balance\n        require(tokenContract.balanceOf(msg.sender) >= _bidValue, \"not enough balance\");\n            // check if bid is higher than previous bid event \n        require(latestBidStore[msg.sender][_productId] > _bidValue, \"must bid a larger amount\");\n            //  transfer the token for locking \n        \n       // ** approve should be called first  ** \n       // tokenContract.approve(address(this), _bidValue);\n\n       // check if approve has been called\n\n        require(tokenContract.allowance(msg.sender,address(this)) == _bidValue, \"not approved yet\");\n\n        tokenContract.transferFrom(msg.sender, address(this), _bidValue);\n\n            //  update the bid amount : latestBidPrice\n        latestBidStore[msg.sender][_productId] = _bidValue;\n            // update the bidding array\n        bidders.push(msg.sender) - 1;\n        product[_productId].latestBid.bidders_address = msg.sender;\n        product[_productId].latestBid.productId = _productId;\n\n        product[_productId].latestBid.bidValue = _bidValue;\n\n            //  trigger event on every update \n        emit Bidding(_productId,msg.sender, _bidValue);\n    }\n\n    // It finalizes the higest bid value and returns all the tokens to respective bidders who havn;t won the bid\n    // on Session end called by the Seller\n    function finalizeBid(uint _productId) public returns(bool) {\n        // check if called by the product seller only \n        require(productIdToOwner[_productId] == msg.sender, \"seller can only finalize the bid\");\n        // check if session is timed out or not \n        require(now > product[_productId].bidSession + product[_productId].bidStartTime, \"cannot finalize\");\n        //product no more available\n        product[_productId].isAvailable = false;\n        // return the rest of bidders' tokens locked \n        for(uint i = 0;i < bidders.length;i++) {\n            // find and refund the bidders who have got their token locked for the auction and did not won the product\n            address bid_addr = bidders[i];\n            if(latestBidStore[bid_addr][_productId] != 0 && latestBidStore[bid_addr][_productId] != product[_productId].latestBid.bidValue) {\n                // process the return\n                tokenContract.transfer(bid_addr, latestBidStore[bid_addr][_productId]);          \n            }\n        }\n        tokenContract.transfer(product[_productId].latestBid.bidders_address,product[_productId].latestBid.bidValue);\n        \n        // UPGRADE : supplychain triggered on Bid Finalization, \n        //           approve the supply chain to ... onSuccess() -> transfer money to the seller\n        //              on failure -> refund back to buyer\n\n    }\n}",
  "sourcePath": "/Users/dibs/Desktop/consensys_doc/proyecto-finale-Consensys/contracts/BiddingContract.sol",
  "compiler": {
    "name": "solc",
    "version": "0.5.0+commit.1d4f565a.Emscripten.clang"
  },
  "schemaVersion": "3.0.1",
  "updatedAt": "2019-01-27T23:39:36.589Z",
  "devdoc": {
    "methods": {}
  },
  "userdoc": {
    "methods": {}
  }
}